:100000000C94C4050C940B060C940B060C94C72B93
:100010000C940B060C940B060C940B060C940B061C
:100020000C940B060C940B060C948B170C9447172E
:100030000C94F7290C940B060C940B060C940B06ED
:100040000C940B060C940B060C940B060C940B06EC
:100050000C940B060C9465180C940B060C940B0670
:100060000C940B060C940B060C940B060C940B06CC
:100070000C940B060C940B060C940B060C940B06BC
:100080000C940B060C940B060C940B060C940B06AC
:100090000C940B060C940B060C940B060C940B069C
:1000A0000C940B060C940B060C940B06000101013A
:1000B0000101010101010202020202020202020325
:1000C00003030303030303040404040404040505F5
:1000D00005050506060606060707070707080808B8
:1000E00008090909090A0A0A0B0B0B0C0C0C0D0D67
:1000F0000D0E0E0E0F0F0F101011111112121313FF
:100100001414151516161717181819191A1A1B1B77
:100110001C1D1D1E1E1F20202122222324242526D3
:1001200026272829292A2B2C2D2D2E2F303132320B
:10013000333435363738393A3B3C3D3E3F40414217
:10014000434445464748494A4C4D4E4F50515354FD
:10015000555658595A5B5D5E5F61626465666869B1
:100160006B6C6D6F7072737577787A7B7D7E808231
:10017000838587888A8C8E8F91939596989A9C9E7A
:10018000A0A2A3A5A7A9ABADAFB1B3B5B7BABCBE8A
:10019000C0C2C4C6C9CBCDCFD1D4D6D8DBDDDFE257
:1001A000E4E7E9EBEEF0F3F5F8FAFDFFFFAA7F557F
:1001B000402223252628292A2C2D2F30323335366C
:1001C000383A3B3D3E4042434547494A4C4E5051E8
:1001D000535557595A5C5E6062646668696B6D6F0F
:1001E00071737577797B7D7F81838587898A8C8E12
:1001F00090929496989A9C9E9FA1A3A5A7A8AAAC1A
:10020000AEAFB1B3B4B6B8B9BBBCBEBFC1C2C3C553
:10021000C6C7C9CACBCCCDCED0D1D2D2D3D4D5D6F5
:10022000D7D7D8D9D9DADADBDBDBDCDCDCDCDCDD28
:10023000DDDDDDDCDCDCDCDCDBDBDBDADAD9D9D80C
:10024000D7D7D6D5D4D3D2D2D1D0CECDCCCBCAC9A4
:10025000C7C6C5C3C2C1BFBEBCBBB9B8B6B4B3B1D3
:10026000AFAEACAAA8A7A5A3A19F9E9C9A9896946E
:1002700092908E8C8A89878583817F7D7B79777543
:1002800073716F6D6B6968666462605E5C5A595722
:10029000555351504E4C4A4947454342403E3D3BE1
:1002A0003A3836353332302F2D2C2A29282625236B
:1002B000222B0014001A00080015001700E00004AB
:1002C000001600070009000A00E1001D001B0006DF
:1002D0000019000500000000000000E300105F2C82
:1002E000002A00130012000C0018001C0034003318
:1002F000000F000E000D000B0029003800370036FB
:100300000010001100000000000000E600115F284E
:10031000002B001E001F00200021002200E0000032
:10032000000000000000000000E1000000000000EC
:100330000000000000000000000000E30001002CAD
:10034000002A0027002600250024002300000000CA
:10035000004F00520051005000000000000000005B
:100360000000000000000000000000E6000100287E
:10037000002B001E021F02200221022202E00000C8
:10038000000000000000000000E10000000000008C
:100390000000000000000000000000E30001002C4D
:1003A000002A0027022602250224022302350031FA
:1003B0000030002F002E002D003502310230022FB8
:1003C000022E022D02000000000000E600010028BD
:1003D00000005C00000000000000000000C35CC6DC
:1003E0005CC85CCA5C00000000C45CC75CC95CCB34
:1003F0005C00000000000000000000E30001002C91
:1004000000000000000000000000000000000000EC
:1004100000000000000000000000000000000000DC
:100420000000000000000000000000E600010028BD
:100430000000AF000000000000000000000000000D
:10044000000000000000007E0F00D4FFFFFFC70087
:1004500000007800000000000000002A2B280000A7
:100460000000000000000000000000000000290063
:100470000000002C1E3420212224342627252E366D
:100480002D3738271E1F20212223242526333336DB
:100490002E37381F0405060708090A0B0C0D0E0F2E
:1004A000101112131415161718191A1B1C1D2F31B1
:1004B00030232D350405060708090A0B0C0D0E0F15
:1004C000101112131415161718191A1B1C1D2F3191
:1004D00030354C00DA0281FFD9F1DB20A4A62EAF23
:1004E00000A0C000A1C800AED580A81FD300408DD9
:1004F00014200032190A00047F3F1F643214643252
:1005000014783C1E1E140A0541646A757374005207
:1005100061697365004C6F7765720044656661754B
:100520006C74004C617965723A200080818283840A
:1005300085868788898A8B8C8D8E8F9091929394F3
:10054000A0A1A2A3A4A5A6A7A8A9AAABACADAEAF33
:10055000B0B1B2B3B4C0C1C2C3C4C5C6C7C8C9CAAA
:10056000CBCCCDCECFD0D1D2D3D40000AE0660FF5D
:100570000961A1010962150026FF00952075088117
:10058000020963150026FF00952075089102C00539
:10059000010906A101050719E029E71500250195C4
:1005A0000875018102950175088101050719002967
:1005B000FF150026FF009506750881000508190142
:1005C0002905950575019102950175039101C009F1
:1005D000024200020100A0FA090400000103010127
:1005E00000092111010001224000070581030800D4
:1005F0000A090401000203000000092111010001A1
:1006000022220007058203200001070503032000C2
:100610000112011001000000085346010001000111
:100620000200010C0343006F0072006E00650000C1
:1006300000100366006F006F007300740061006EAD
:10064000000000040309040000000000003E5B4FAE
:100650005B3E003E6B4F6B3E001C3E7C3E1C001818
:100660003C7E3C18001C577D571C001C5E7F5E1CA6
:100670000000183C180000FFE7C3E7FF0000182443
:10068000180000FFE7DBE7FF0030483A060E0026BF
:100690002979292600407F05050700407F05253F71
:1006A000005A3CE73C5A007F3E1C1C0800081C1CFA
:1006B0003E7F0014227F2214005F5F005F5F000610
:1006C000097F017F00006689956A00606060606054
:1006D0000094A2FFA2940008047E04080010207E6B
:1006E00020100008082A1C0800081C2A0808001E00
:1006F00010101010000C1E0C1E0C0030383E38304C
:1007000000060E3E0E060000000000000000005F24
:10071000000000000700070000147F147F1400246D
:100720002A7F2A120023130864620036495620509B
:1007300000000807030000001C22410000004122C5
:100740001C00002A1C7F1C2A0008083E0808000024
:100750008070300000080808080800000060600091
:10076000002010080402003E5149453E0000427F2F
:100770004000007249494946002141494D33001863
:1007800014127F10002745454539003C4A4949313C
:1007900000412111090700364949493600464949B7
:1007A000291E00000014000000004034000000007A
:1007B00008142241001414141414000041221408D7
:1007C000000201590906003E415D594E007C12119C
:1007D000127C007F49494936003E41414122007F59
:1007E0004141413E007F49494941007F09090901D2
:1007F000003E41415173007F0808087F0000417F9F
:100800004100002040413F01007F08142241007F49
:1008100040404040007F021C027F007F0408107FA0
:10082000003E4141413E007F09090906003E415119
:10083000215E007F091929460026494949320003F3
:10084000017F0103003F4040403F001F2040201F28
:10085000003F4038403F00631408146300030478ED
:100860000403006159494D4300007F4141410002AA
:100870000408102000004141417F000402010204ED
:10088000004040404040000003070800002054544E
:100890007840007F284444380038444444280038D5
:1008A0004444287F0038545454180000087E09023C
:1008B000001824241C78007F080404780000447D7C
:1008C0004000002040403D00007F10284400000010
:1008D000417F4000007C04780478007C08040478A0
:1008E000003844444438007C182424180018242478
:1008F000187C007C08040408004854545424000464
:10090000043F4424003C4040207C001C2040201C2C
:10091000003C4030403C004428102844004C90905B
:10092000907C004464544C440000083641000000B0
:1009300000770000000041360800000201020402B6
:10094000003C2623263C00000000000000000000C0
:1009500000000000000000C0E0F0F8F81800C0F04F
:10096000FCFEFFFFFFFFFFFFFF7E00000000000016
:1009700000000080C0E0E0E0E0E0E0E0E0C08000F7
:1009800000000080C0E0E0E0E0E0E0E0E0C08000E7
:100990000000E0E0C0C0E0E0E0E00000E0E0C0C057
:1009A000E0E0E0E0E0C0800000000080C0E0E0E0C7
:1009B000E0E0E0E0E0C08000000000000000000097
:1009C0000000000000E0F0F0F0E0ECEEF7F3702043
:1009D000007C7C7C7E007E7E7E7F7F7F000080C0EE
:1009E000E07E5B4F5BFEC00000C000DCD7DEDEDED9
:1009F000D7DC00C000000000000000000000000084
:100A000000000000000000000000000000000000E6
:100A1000F8FCFEFFE000FFFFFFFFFFFF80FFFFFF8E
:100A2000FFFFFFFFFFFF1F070100000000000000A5
:100A30000000FFFFFF8100000000000081C3C3C36E
:100A40000000FFFFFF8100000000000081FFFFFFAA
:100A50000000FFFFFF01000000000000FFFFFF019A
:100A60000000000001FFFFFF0000FFFFFF9D1C1CB6
:100A70001C1C1C1C9DDFDFDF0000000000000000CC
:100A800000000000000F1F3F7F7F7F7F7F3F1E0C15
:100A9000001F1F1F3F003F3F3F7F7F7F00307B7F56
:100AA0007830202030787F3B0003000F7F0F0F0F3E
:100AB0007F0F0003000000000000000000000000A5
:100AC0000000000000000000000000000000000026
:100AD000030F1F3F3F3F3F1F1F3F3F7F7F7F3F3F32
:100AE0001F3F7F7F7F7F7C7878381C0F00000000DD
:100AF00000000001030707070707070707030100B6
:100B000000000001030707070707070707030100A5
:100B100000000707070000000000000007070700AB
:100B20000000000000070707000000010307070797
:100B3000070707070703010000000000000000008E
:100B400000000000000000000000000000000000A5
:100B50000000000000000000000000000000000095
:100B60000000000000000000000000000000000085
:100B70000000000000000000000000000000000075
:100B8000000000000000000011241FBECFEFDAE0DB
:100B9000DEBFCDBF04B603FE27C08091C50590918E
:100BA000C605A091C705B091C8058730904BA740F6
:100BB000B04BD1F41092C5051092C6051092C7052E
:100BC0001092C80514BE84B7877F84BF0FB6F8940F
:100BD000A895809160008861809360001092600009
:100BE0000FBEE0E0F8E3099525E0A8ECB1E001C014
:100BF0001D92A53CB207E1F711E0A0E0B1E0E4E707
:100C0000F3E602C005900D92A83CB107D9F70E9407
:100C100075230C945C310C940000E8EDF0E08081C9
:100C20008E7F80831092E2001092DA001092E10031
:100C3000A0EEB0E08C9181608C9380818F7780836F
:100C400019BCA7EDB0E08C918E7F8C9380818F7E54
:100C500080831092990308952091E4003091E5007B
:100C600095E6A9012091EC00822F817020FF06C03B
:100C70008091E80080FF06C080E008952091E800A0
:100C800022FD1AC08091A603882389F0853089F05F
:100C90008091EB0085FD0FC02091E4003091E500CC
:100CA00042175307F9F29150E1F684E0089582E08B
:100CB000089583E0089581E00895EF92FF920F93E5
:100CC0001F93CF937C018B010E942C06C82F8111AA
:100CD00017C08091E80085FD0BC08091E8008E77F9
:100CE0008093E8000E942C06882399F3C82F08C03F
:100CF000F70181917F018093F1000150110949F7BB
:100D00008C2FCF911F910F91FF90EF9008958091BC
:100D1000A80387FF13C08091E80082FF06C080917E
:100D2000E8008B778093E80004C08091A6038111CE
:100D3000F2CF08958091A6038823D9F38091E8002B
:100D400080FFF8CF8091E8008E77ECCF982F9093BA
:100D5000E900242F762F50E0891731F07091EC00D4
:100D60002091ED005091F00021FD07C09F5F97306A
:100D700071F78093E90081E008953091EB003E7FA8
:100D80003093EB003091ED003D7F3093ED003091DA
:100D9000EB0031603093EB007093EC002093ED009A
:100DA0005093F0002091EE0027FDE0CF80E0089501
:100DB000CF92DF92EF92FF920F931F93CF93DF9327
:100DC000C8EDD0E088818F7E8883E7EDF0E08081F8
:100DD0008160808384E082BF81E080939903888171
:100DE0008E7F888302EE10E0F80110821092DA0004
:100DF00081EEC82ED12CF601108288818F778883EE
:100E000088818068888388818F7D888319BC10924F
:100E1000A6031092A7031092A5031092A40390EECC
:100E2000E92EF12CF70180818B7F8083888181609E
:100E3000888342E060E080E00E94A606F60180819F
:100E40008E7F8083F80180818160808380818860CB
:100E50008083F70180818E7F808388818061888391
:100E6000DF91CF911F910F91FF90EF90DF90CF9086
:100E70000895FC01CB012091AE033091AF032617FA
:100E8000370790F0009729F42091E8002E772093FF
:100E9000E80040E0009751F4411108C08091E8005B
:100EA00082FF31C080E00895C901F3CF2091A603ED
:100EB0002223A9F12530A9F12091E80023FD2DC0BE
:100EC0002091E80022FDEACF2091E80020FFE2CF48
:100ED0003091F3002091F200009719F0283031058D
:100EE00058F041E02830310509F040E02091E80059
:100EF0002E772093E800CECF41914093F1000197E7
:100F00002F5F3F4FE9CF8091A603882341F08530C2
:100F100041F08091E80083FFC1CF81E0089582E035
:100F2000089583E00895089508950895089580919F
:100F30009B03089587E797E7909301088093000843
:100F400088E19AE00FB6F894A895809360000FBEF0
:100F500090936000FFCF9C014FB7F89480912203DB
:100F600090912303A0912403B09125034FBF821BCE
:100F7000930B0895CF93DF9300D000D0CDB7DEB7A9
:100F80008FB7F894209122033091230340912403DA
:100F90005091250329833A834B835C838FBF6981FA
:100FA0007A818B819C810F900F900F900F90DF9131
:100FB000CF9108959C01FC0132968FEF90E0419112
:100FC000461751F08F3F19F4411101C0892F9F5FDF
:100FD0009630A9F78F3F09F40895280F311D87FD3A
:100FE0003A95F9016283089580911D038111109251
:100FF0001D03089580911C0390911B03892B9091F0
:101000001A03892B8093C80190911D03992391F0B5
:10101000892B8093C80120E08AEC91E0FC013081AB
:10102000019631112F5F31E0803D9307B9F721110F
:101030000E94F407E0913303F0913403309731F0CC
:101040000280F381E02D88EC91E009940895292F26
:10105000220FE22FE90FEE0FE80F9E2F9770E69513
:10106000E695E69585E0E89FF0011124E550FD4FF7
:1010700050E040E080E0219130E0092E02C036953A
:1010800027950A94E2F721703327042E01C0220F1E
:101090000A94EAF7822B4F5F5F4F4530510559F7AD
:1010A0000895292F220FE22FE90FEE0FE80F8E2F60
:1010B000877041E001C0440F8A95EAF7E695E6950E
:1010C000E69585E0E89FF0011124E550FD4F30E002
:1010D00020E070E05191DF011197CB01022E02C098
:1010E000969587950A94E2F78170819585278423E8
:1010F00085278C932F5F3F4F2530310559F7089591
:101100006093B3037093B4038093B5039093B603D5
:1011100010921B0310921A030C94FA07CF93DF93DB
:1011200000D000D0CDB7DEB78091B3039091B40367
:10113000A091B503B091B603AC01BD01467055272F
:10114000662777279C01463051056105710591F4AA
:10115000AD01286029833A834B835C8369817A815E
:101160008B819C810F900F900F900F90DF91CF910A
:101170000C948008AD01277FEDCF0F931F93CF9381
:10118000DF9300D000D0CDB7DEB741E050E060E0A3
:1011900070E004C0440F551F661F771F8A95D2F771
:1011A00040955095609570958091B3039091B403EC
:1011B000A091B503B091B6038A019B0108231923BE
:1011C0002A233B2309831A832B833C83C901B8015B
:1011D0000F900F900F900F90DF91CF911F910F9173
:1011E0000C948008909119038095892380931903AA
:1011F000282F277071F4282F082E000C330B92171C
:10120000130639F08595859585950E94BD08109245
:10121000190308950F931F93CF93DF9300D000D04D
:10122000CDB7DEB741E050E060E070E004C0440FAD
:10123000551F661F771F8A95D2F78091B30390914F
:10124000B403A091B503B091B6038A019B01082BAA
:10125000192B2A2B3B2B09831A832B833C83C9012F
:10126000B8010F900F900F900F90DF91CF911F91C9
:101270000F910C94800860931E0370931F0380935A
:1012800020039093210310921B0310921A030C94D5
:10129000FA078091FA029091C902981301C008954B
:1012A0008F5F8770FACF882341F0809590911C035F
:1012B000892380931C030C94FA070895882339F03E
:1012C00090911C03892B80931C030C94FA070895BA
:1012D000882309F459C09CEF980F913A78F4EAEC0E
:1012E000F1E020ED31E09191891303C0DF01119706
:1012F0001C922E173F07B9F70C94FA0790E2980F4B
:10130000983088F4877021E030E0A90102C0440FD2
:10131000551F8A95E2F7CA01809590911C03892395
:1013200080931C03E9CF9BE5980F9330B0F4809134
:10133000BF029091C002892B39F11092C002109225
:10134000BF02E0913303F09134033097E9F0068057
:10135000F781E02D90E080E00994885A8731A0F46D
:101360008091C1029091C202892B71F01092C20249
:101370001092C102E0913303F0913403309721F0D1
:101380000084F185E02DE6CF0895CF93C82F882300
:10139000A1F18CEF8C0F813AF8F4EAECF1E0DF0177
:1013A0008D91C81761F081E0A03DB807C9F76C2F97
:1013B00088EC91E00E94DA07CF910C94FA078191B2
:1013C000C81303C0DF0111971C9281E0E03DF807CC
:1013D000B1F70E94FA07EBCF80E28C0F883068F4F7
:1013E000C77021E030E001C0220FCA95EAF7809172
:1013F0001C03822B80931C03DFCFCF910895E091D3
:101400003303F0913403309721F00190F081E02D07
:10141000099480E00895FA0181110994FB01FDCF40
:10142000EFE3F3E0118282818460828308958091EA
:101430008C03982F9E7F61F48170826080938C036F
:1014400080918F03893718F088E780938F03089580
:101450008635B0F381708465F1CFAF92BF92CF92A1
:10146000DF92EF92FF920F931F93CF93DF93082F9A
:10147000162FE901493708F048E7E42FF0E0E4557A
:10148000FF4F111111C0E4915E2F4E2F4983E88365
:101490005A83DF91CF911F910F91FF90EF90DF90D2
:1014A000CF90BF90AF900895212F30E0449186E017
:1014B000089F60011124EE24EA94F12CC601B701C3
:1014C0000E94EF2C802F90E0880F991F55E5569FC2
:1014D000F001579FF00D11248E1B9F0B982F990F31
:1014E000890FF701E21BF30B4E9FD0014F9FB00D08
:1014F0001124EB2F189F80011124012F1127570170
:10150000A01AB10A4A9D80014B9D100D1124512F44
:101510005701A81AB108A29EC001A39E900DB29EC9
:10152000900D1124892F9927E81AF90A4E9DC001C0
:101530004F9D900D112463307105D1F02CEFC21630
:1015400023E0D20670F461307105B1F062307105AC
:10155000B9F02FEFC216D10408F098CF5B2FE92F16
:1015600095CF6430710579F066307105B9F38ECF8F
:10157000E12F542F4B2F8ACFE42F412F5B2F86CFA3
:10158000592FE42FF7CF542F492F80CFF894E82F0D
:10159000E295EF70F0E041A18F7021E030E0B901F9
:1015A00002C0660F771F8A95E2F7CB01962F9095C0
:1015B000942391A392A1892B82A37894089590916A
:1015C000300392FF06C0282F28712830F9F4877F56
:1015D000846093FF06C0282F28712831F1F4877E9C
:1015E00084612091310320FF06C0382F38713830D4
:1015F000D9F4877F816021FF06C0282F2871283108
:10160000D1F4877E816194FD877E0895282F24710F
:101610002430F9F68B7F8860DCCF282F24712431A9
:1016200001F78B7E8861DDCF382F3171313019F7AA
:101630008E7F8860E0CF282F2171213121F78E7EA7
:101640008861E1CF10921C03EAECF1E086E0DF0153
:101650001D928A95E9F710921B0310921A030C94BD
:10166000FA071F93CF93DF93CDB7DEB7AA970FB6D4
:10167000F894DEBF0FBECDBF88EA93E0FC0101966F
:101680002091F100208323E0803B9207B9F78091FD
:10169000A903893009F456C0C8F4823009F4B1C0F6
:1016A000833009F480C0813071F18091E80083FFBC
:1016B0007DC28091A8039091A9039A3008F076C268
:1016C000E92FF0E0E25AFE4C0C94172D8A3009F411
:1016D00087C08B3051F78091A803813231F7809118
:1016E000AC039091AD03892B01F78091E800877FCF
:1016F0008093E8000E9487068091AA0380933401BA
:101700000E94220BD2CF8091A803813A71F680917A
:10171000E800877F8093E8008091AC039091AD034F
:10172000892B61F468E08CE993E070E00E9439074E
:101730008091E8008B778093E800B7CF60E090E07D
:1017400080E0F3CF8091A803813209F0AECF809181
:10175000AC039091AD03892B09F0A7CF8091E800ED
:10176000877F8093E8008091E80082FF17C0909106
:10177000F3008091F200029729F48091F1008B7FB1
:10178000813021F48091F10080939B038091E800E7
:101790008B778093E8000E94870687CF8091A6030D
:1017A0008111E1CF82CF8091A803813A09F07DCFEA
:1017B0008091AC039091AD03892B09F076CF809195
:1017C000E800877F8093E8008091E80080FFFCCFED
:1017D000809134018093F1008091E8008E77D9CF19
:1017E0008091A803813209F060CF8091E800877F63
:1017F0008093E8000E9487068091AB0380939A0350
:1018000054CF8091A803813A09F04FCF8091E8002E
:10181000877F8093E8008091E80080FFFCCF809173
:101820009A03D8CF803899F0823809F0BFC18091EF
:10183000AC038F70873008F0B9C18093E9008091C4
:10184000EB0085FB882780F91092E90006C08091A3
:10185000A4039091A503911182609091E800977F75
:101860009093E8008093F1001092F1008091E800DD
:101870008E7798C1882309F486C1823009F096C119
:101880008091AA03811189C18091AC038F702FEFE1
:10189000280F263008F08AC18093E9002091EB00E0
:1018A00020FF7BC1933031F48091EB008062809304
:1018B000EB0073C19091EB0090619093EB0021E0FD
:1018C00030E001C0220F8A95EAF72093EA001092D7
:1018D000EA008091EB008860EACF811167C1109126
:1018E000AA031F778091E3008078812B8093E30027
:1018F0008091E800877F8093E8000E9487068091AE
:10190000E80080FFFCCF8091E30080688093E300D3
:1019100082E0111183E08093A60348C18058823091
:1019200008F044C14091AA035091AB034C3D83E0C1
:101930005807A1F583E08A838AE289834FB7F89438
:10194000DE01139620E03EE051E2E32FF0E05093F9
:101950005700E49120FF03C0E295EF703F5FEF7006
:101960008E2F90E0EA30C0F0C7968D939D932F5F45
:10197000243159F74FBF8091E800877F8093E800BA
:101980006AE270E0CE0101960E9439078091E8007A
:101990008B778093E8000AC1C096E7CF2091AC0313
:1019A0003091AD03852F99278330910501F160F4C3
:1019B0008130910509F471C0029709F0F7C082E403
:1019C00090E0EFECF5E028C08132910509F459C0B0
:1019D0008232910509F0EAC02115310509F467C08A
:1019E0002130310509F0E2C0EDE6F5E015C0CA018D
:1019F00099274130B1F18230910509F43AC0892B21
:101A000009F0D4C0E3E4F6E0E4918E2F90E0E3E443
:101A1000F6E0009709F4CAC02091E800277F2093E0
:101A2000E8002091AE033091AF038217930708F4CA
:101A30009C0140E02115310509F03EC041113CC038
:101A40008091E80082FDA2CF8091A603882309F44B
:101A50009DCF853009F49ACF8091E80083FFF0CFC5
:101A600095CFE1E3F6E0E4918E2F90E0E1E3F6E03C
:101A7000D0CFE3E2F6E0E4918E2F90E0E3E2F6E0EF
:101A8000C8CF2115310571F02130310509F08EC024
:101A900089E090E0EAEFF5E0BFCF82E190E0E1E19C
:101AA000F6E0BACF89E090E0E1EEF5E0B5CF80E472
:101AB00090E0EFE8F5E0B0CF8091A603882309F429
:101AC00065CF853009F462CF8091E80083FD5ECF59
:101AD0008091E80082FDB4CF8091E80080FFAACF1A
:101AE0009091F3008091F2002115310519F08830B2
:101AF000910550F041E0089709F040E08091E8003E
:101B00008E778093E80096CF44914093F100319610
:101B1000215031090196E8CF803809F047C0809103
:101B2000E800877F8093E8008091A7038093F1000D
:101B30009DCE81113BC01091AA031230B8F580915F
:101B4000E800877F8093E8001093A7030E94870630
:101B5000112311F084E005C08091E30087FDFACFE6
:101B600081E08093A60342E061EC81E00E94A6063A
:101B700042E261EC82E00E94A60642E260EC83E071
:101B80000E94A60613C08091AA03813079F481E0F7
:101B9000933009F080E08093A5031092E9008091D2
:101BA000E800877F8093E8000E9487068091E80024
:101BB00083FF0AC08091E800877F8093E8008091CE
:101BC000EB0080628093EB00AA960FB6F894DEBF1C
:101BD0000FBECDBFDF91CF911F910895CF93DF93BB
:101BE000682F81E06A3019F06D3029F480E0DF91D0
:101BF000CF910C947D0E8091C0059091C10526E097
:101C0000FC01AAEBB5E001900D922A95E1F7603E48
:101C100008F45AC026E0FC0111922A95E9F7C09118
:101C2000C005D091C10546E050E0BE018AEB95E0C9
:101C30000E94F82D9E012A5B3340892B41F1C90196
:101C400045E0969587954A95E1F741E050E0BA0165
:101C500002C0660F771F8A95E2F7CB016091B80347
:101C60007091B903862B972BB9016B5F7F4FE5E02D
:101C700076956795EA95E1F702C0440F551F6A957E
:101C8000E2F7842B952B9093B9038093B8032A5FD6
:101C90003F4F4091B703642F70E0C9010E94EF2CC1
:101CA000481B463010F4240F311D211572E0370710
:101CB00010F030E020E026543C4F3093C1052093D3
:101CC000C005DF91CF910895F6E06F9FB001112418
:101CD000695B794F46E050E00E94E22DA0CFCF93A0
:101CE000DF93EC01FE018491811103C0DF91CF915C
:101CF00008950E94EE0D2196F5CFCF93382FE091F5
:101D0000C005F091C105EA5BF3402091B703622F53
:101D100070E0CF010E94EF2C281B822F332361F04B
:101D200066E00E94D52CC82FC15010F4CF910895C1
:101D300080E20E94EE0DF8CF9F01280F311D211582
:101D4000324018F080E0F0E0E0E08E0F9F2F911D10
:101D500086549C4F9093C1058093C005E7CFCF92E6
:101D6000DF92EF92FF920F931F93CF93DF936C015B
:101D70007B0164E670E088E70E94242AEC0197FD6D
:101D800012C010E000E0F601E00FF11F849164E65C
:101D900070E00E94802AEC01892B29F40F5F1F4F0D
:101DA0000E151F0581F70E940D2BCE01DF91CF91FB
:101DB0001F910F91FF90EF90DF90CF900895CF93F8
:101DC000DF9300D000D00F92CDB7DEB780918003B3
:101DD0008D83809181038823F1F00E94BA07DC0192
:101DE000CB01805A9541AF4FBF4F80937C039093B6
:101DF0007D03A0937E03B0937F038D81811108C082
:101E000062E070E081E394E00E94AF0E892B61F004
:101E1000809180038D838D810F900F900F900F9094
:101E20000F90DF91CF91089581E080938003F0CFF0
:101E3000CF9384E090E00E94B130C82F81E290E01F
:101E40000E94B130982F8C2FCF9108950F931F933C
:101E5000CF93DF93C42FD0E0CC0FDD1F2CE0629F27
:101E6000C00DD11D112430E6839FC00DD11D11245A
:101E7000CE0186960E94B130082F10E0102F002767
:101E8000CE0187960E94B1309801282BC901DF91BD
:101E9000CF911F910F910895462F672F843030F412
:101EA000783020F4463010F40C94260F90E080E057
:101EB0000895CF93DF930E944C0FEC01803E910573
:101EC00009F464C010F58133910509F4A7C058F4F2
:101ED0008932910509F49BC08A32910509F4A5C0A5
:101EE000019701F10BC08933910509F448C082388C
:101EF000910509F444C0C59709F482C0CE01049746
:101F0000813A910508F04EC00DC0843E910509F458
:101F10005CC060F4823E910509F447C0833E9105A0
:101F200009F448C0CE01DF91CF910895863E910516
:101F300009F456C0873E910509F457C0811524E580
:101F4000920708F09AC0811533E5930708F0ECC0BA
:101F5000811541E5940708F078C0C11580E5D807E0
:101F600008F0C3C0C83ED105E8F2C11590E2D90718
:101F700008F062C0CF3FD105A9F0A0F0D3CF809187
:101F80003003837079F2C0EED0E0CCCF8091300383
:101F900080FDF5C09091310390FFC4CFC3EED0E037
:101FA00084FFC0CFD0E0C0E0BDCF8091300382FD80
:101FB000F5CFB8CF8091300382FDE4C0909131031A
:101FC00090FDE1CF84FFAECFEDCF8091310381FF53
:101FD000A9CF80913003C7EED0E084FDE3CFA2CF3C
:101FE0008091300383FDF7CF9DCF8091300383FD37
:101FF000CCC09091310391FFE5CFC4EED0E092CFF9
:102000008091300385FF8ECFC9E2D0E08BCF8091E5
:10201000300385FF87CFC5E3D0E084CF80913003C4
:1020200086FF80CFCAE2D0E07DCF8091300386FF6B
:1020300079CFC1E3D0E076CFCE01905481159041A5
:1020400008F0B0CFDF70D06A6DCF811532E593070D
:1020500008F465C08370992721E030E002C0220FA8
:10206000331F8A95E2F7C695C69540E2C49FE0010A
:102070001124C22BD32BDC6855CFC11589E5D807B5
:10208000E0F4C11598E5D90708F066C0C11525E54B
:10209000D20708F45CC0CE0195558F3F910511F031
:1020A00008F080CF8C2F0E94DF0AC82FD0E0DC2FF1
:1020B000CC27CC27DF71D06235CFC1153AE5D307E5
:1020C00008F44FC0CE0190568115904208F06ACFB7
:1020D0008D2F8F710E94DF0A90E0982F8827882724
:1020E0009F719C012C2BE901E6CFCE01E4E096958F
:1020F0008795EA95E1F783702C2F26952695237016
:1021000090E2299F90011124382B8C2F8370C1E01D
:10211000D0E002C0CC0FDD1F8A95E2F7AACFD82FFE
:10212000CC27C16FD06AFECE8370992721E030E0C2
:1021300002C0220F331F8A95E2F7C695C69540E28A
:10214000C49FE0011124C22BD32BDA68EBCEDC2F25
:10215000CC27C46FD06AE6CEDC2FCC27C06FD06A04
:10216000E1CE8C2F8F700E94DF0A34E0D695C795A0
:102170003A95E1F7CF70DC2FC82FD069D3CEC9E3F1
:10218000D0E0D0CEC2EED0E0CDCEC6EED0E0CACE0A
:10219000BF92CF92DF92EF92FF920F931F93CF9354
:1021A000DF938C01C090B303D090B403E090B503EB
:1021B000F090B60380911E0390911F03A09120031D
:1021C000B0912103C82AD92AEA2AFB2ACFE1D0E01C
:1021D000BC2ED701C6010C2E04C0B695A7959795C5
:1021E00087950A94D2F780FD0EC0219788F7B12C0D
:1021F0008B2DDF91CF911F910F91FF90EF90DF908A
:10220000CF90BF900895B8018C2F0E94590F01976D
:1022100061F3EECFCF93DF93D82FC92F0E94C81060
:102220006D2F7C2FDF91CF910C94590F0E940A11D2
:10223000282F892F8F70392F32953F70903C80F472
:102240003A30B0F4343020F4323090F480E0089525
:102250003630E1F781E0283E88F0213FB9F70EC023
:102260003C3011F03F3091F786958695869508951C
:1022700081E0203F39F018F4283E40F70895243FCC
:1022800029F7FCCF08956F927F928F929F92AF9221
:10229000BF92CF92DF92EF92FF920F931F93CF9353
:1022A000DF93D12CC12C32E9A32EB12CE501C0560D
:1022B000D10936011BC0F70185909490692DC801A2
:1022C0000E94C530682DC80101960E94C53022E0E9
:1022D000E20EF11C0E5F1F4FC017D10761F736E009
:1022E000630E711C2C96CA15DB0559F0C301880FCB
:1022F000991F9C012F543D4F79018E010C501109FB
:10230000DACFCE01805A9F4F5C0190E3C90ED11CF9
:10231000C23BD14059F6DF91CF911F910F91FF90B1
:10232000EF90DF90CF90BF90AF909F908F907F9075
:102330006F900895CF93DF93C6EAD1E060E0CE01BD
:102340000E94C5302196C11584E0D807B9F7DF9106
:10235000CF910895CF93DF93D82FC92F81E0809339
:10236000E9008FEF9091E800815095FD06C095ED52
:102370009A95F1F700008111F5CF8091E80085FF73
:1023800016C050E040E068E070E08D2F9C2F0E9466
:102390005D068091E8008E778093E80088E0ED2F5D
:1023A000FC2FACE9B3E001900D928A95E1F7DF9143
:1023B000CF910895CF93C82F0E94C509C93349F41E
:1023C0002FEF87EE93E0215080409040E1F700C06E
:1023D00000008C2FCF910C94680980918C0380FDB4
:1023E0000AC0E6EEF1E0118210821282339652E0CA
:1023F000E733F507C1F7539A3BB1377F2BB128601C
:102400004FB7F89486EE91E0FC010196508168E0A8
:102410002BB9000000C057FF3BB9550F000000C0AA
:1024200000C000C03BB900C06A9591F752E0873305
:10243000950751F74FBF8FE594E00197F1F700C082
:10244000000008958F929F92AF92BF92CF92DF9239
:10245000EF92FF920F931F93CF93DF93FC01B28013
:10246000A48081E08483C7E3D2E006EE11E08BE430
:10247000982E88248394EE24EA94F12C2BE4C22E27
:10248000D12CA1101DC01B821A8298014A8169813A
:1024900088810E942D0A25960D5F1F4F82E0CE3B5A
:1024A000D80779F7DF91CF911F910F91FF90EF90AF
:1024B000DF90CF90BF90AF909F908F900C94ED11D4
:1024C0002B81222309F121502B833C81892D821BF2
:1024D000311101C0822F90918F03899FC001112477
:1024E000B6010E94EF2C6A83211104C0332311F03E
:1024F0001C829B8222E02B1540F280918D03888301
:1025000080918E038983C1CF0E94D22D8230914069
:102510000CF0BBCF82E08B15C0F40E94D22DB70126
:102520000E94032D888322E02B1590F40E94D22D67
:1025300020918E032695622F70E00E94032D280FB4
:1025400029831A829B828C82A0CF80918D03EACF4F
:1025500020918E03F5CFEF92FF921F93CF93DF93DD
:10256000EC0186EEE82E81E0F82E10E08C819701D8
:1025700040918F0360918E03810F0E942D0A175F97
:1025800083E0E80EF11C133F89F70E94ED119A8158
:102590008C8190FF08C08F5F8C83DF91CF911F915A
:1025A000FF90EF9008958150F7CFAF92BF92CF92F6
:1025B000DF92EF92FF920F931F93CF93DF93EC0183
:1025C0008A81BB24BA9480FD02C0BB24B3948C8161
:1025D000811108C081E0B8125AC08AE18093E301FA
:1025E00081E08C8326EEE22E21E0F22E10E000E066
:1025F000F70111821082128294E0C92ED12CA12CF5
:102600008091E3018A0D8C310CF444C06BE10E948F
:10261000E12C892F082E000C990B8017910791F45B
:1026200080918F038C9DA0018D9D500D1124559597
:10263000479555954795970160918E0380918D033D
:102640000E942D0AAB0CF1E0CF1AD108C9F60F5F3A
:102650001F4F83E0E80EF11C0B31110549F60E9473
:10266000ED118091E30191E0B9121DC0811116C0F6
:102670008AE18093E3011C82DF91CF911F910F913A
:10268000FF90EF90DF90CF90BF90AF9008951092A1
:10269000E301A6CF87FFBECF855EBCCF815080937C
:1026A000E301BC82E9CF90E00196B8010E94032DBE
:1026B0008093E3018C83E0CFEF92FF920F931F93FF
:1026C000CF93DF938C01FC018481811109C081E0EB
:1026D00084831092E40192E09093100180930F01A3
:1026E000C6EED1E0FE01118210821282339682E0A2
:1026F000E733F807C1F7F12CE12C8091E401082EB3
:10270000000C990BE816F906CCF180911001082E07
:10271000000C990B8E159F058CF19E0140918F0343
:1027200060918E0380918D030E942D0AEFEFEE1AC7
:10273000FE0A2396FBE1EF16F104F9F60E94ED1173
:1027400080910F019091E401980F9093E401209102
:102750001001280F20931001121614F49A313CF046
:10276000819580930F01813011F4F8011482DF917B
:10277000CF911F910F91FF90EF90089519821882C9
:102780001A82D4CFCF92DF92EF92FF920F931F93D2
:10279000CF93DF93CDB7DEB72E970FB6F894DEBF99
:1027A0000FBECDBF8D879E87AD85BE8514961C91CB
:1027B000212F30E0D9010E944D319B01AC010E94D4
:1027C000183169837A838B839C83E0E2F0E0E11B1C
:1027D000F109A5E5B0E09B01AC010E9418316987C1
:1027E0007A878B879C879F01DF010E94242D9B01A4
:1027F000AC010E9423316D837E838F8398879B0178
:10280000AC0189819A81AB81BC81280F391F4A1F95
:102810005B1F69857A858B859C850E942B31F22E02
:10282000822F90E0A9E2A21708F442C0B3E02B9FE8
:102830009001112435952795122F109596EEC92EEB
:1028400091E0D92E00E085E5E82EEF188E2D01FDF0
:102850008F2D9601412F60918E030E942D0A0F5FEC
:10286000F3E0CF0ED11C0B3189F70E94ED11AD853D
:10287000BE8514969C9181E0992319F0903219F449
:102880008FEF8093110180911101890FED85FE85F5
:1028900084832E960FB6F894DEBF0FBECDBFDF91B6
:1028A000CF911F910F91FF90EF90DF90CF900895FF
:1028B00025E530E0F901E81BF90B9F01220F331FDA
:1028C0002E0F3F1F37FFB6CF2F5F3F4FB3CFEF9293
:1028D000FF920F931F93CF93DF93EC0106EE11E06D
:1028E000F12CE12C60918E0380918D039C812DE071
:1028F000E216F104FCF49923F9F0980140918F035A
:102900000E942D0A8FEFE81AF80A0D5F1F4F2BE186
:10291000E216F10439F70E94ED118C8190E00196E6
:10292000817099278C83DF91CF911F910F91FF9038
:10293000EF900895992309F3980140E0E1CF909139
:102940008C0390FF0CC0E6EEF1E08183608342834C
:10295000339692E0E733F907C1F70C94ED1108952F
:102960000F931F93CF93DF9300D00F92CDB7DEB7B5
:102970008C018091E50181110AC09E012F5F3F4FBC
:1029800048E76FEF0E942D0A8A818093E501F801E4
:102990006481613049F06230F1F08091E50140E0FE
:1029A000662331F040E019C06091E50140E080E02D
:1029B0000E949F14F801848190E0019663E070E02A
:1029C0000E94032D84830F900F900F90DF91CF9181
:1029D0001F910F9108954091E50180E060E0E8CFFC
:1029E000CF93DF9300D00F92CDB7DEB790918C03D9
:1029F00090FF0AC09E012F5F3F4F0E942D0A4B811E
:102A000069818A810E949F140F900F900F90DF912F
:102A1000CF910895CF93DF93EC01EC81F0E0EF5478
:102A2000FE4F4491ECE8F3E0628181810E94F01452
:102A30008C818F5F8C83DF91CF910895CF93DF934B
:102A4000EC01ECE8F3E0438162818C810E94F01498
:102A50008C818F5F8C83DF91CF910895ECE8F3E058
:102A600080818E7F80830E94100AEFE3F3E08281F1
:102A7000816082832FEF80E792E021508040904078
:102A8000E1F700C000000C94ED118091E20181118A
:102A900010C08091D80080618093D8008AE18A9527
:102AA000F1F700C08091D90080FD0AC082E08093D8
:102AB000E20181E09091E201913009F080E0089517
:102AC00081E0F5CF6CEE7EEF90E080E00E94E33095
:102AD00060E082E090E00E94C53060E083E090E03A
:102AE0000E94C53010921E0310921F031092200303
:102AF0001092210360E084E090E00E94C53060E025
:102B000081E290E00E94C53060E085E090E00E94A4
:102B1000C53060E086E090E00E94C5306FEF87E04E
:102B200090E00E94C53040E050E0BA0188E090E0BB
:102B30000E94D73060E08DE090E00E94C53040E018
:102B400050E0BA0188E190E00E94D73060E087E170
:102B500090E00E94C53040E050E0BA018CE190E086
:102B60000E94D73060E080E290E00E94C53040E0F3
:102B700050E0BA0188E190E00E94D73040E050E098
:102B8000BA018FE090E00E94D73040E050E0BA01F7
:102B900083E190E00C94D7300F931F93CF93DF9392
:102BA0008B01D82FC92F0E94170AA8016D2F7C2FE7
:102BB00088E090E0DF91CF911F910F910C94D73076
:102BC0003F924F925F926F927F928F929F92AF92BD
:102BD000BF92CF92DF92EF92FF920F931F93CF930A
:102BE000DF9300D000D000D00F92CDB7DEB7182F02
:102BF000562E042F422E90918C0390FF3DC0E92F5A
:102C0000E695AE2FB0E0A65BBE4F8C9180933F035C
:102C10009E7F923009F048C09E012F5F3F4F812F69
:102C20000E942D0A4B8169818A810E949F148091A4
:102C30008D03811308C080918E03851104C080919B
:102C40008F03801729F080914103826080934103B4
:102C500010938D0350928E0300938F03442061F0F4
:102C600080918C0390918D03A0918E03B0918F037E
:102C7000BC01CD010E94CC1527960FB6F894DEBF9B
:102C80000FBECDBFDF91CF911F910F91FF90EF90BD
:102C9000DF90CF90BF90AF909F908F907F906F907C
:102CA0005F904F903F900895823019F400918F0308
:102CB000BECF863019F410918D03B9CF8930D9F386
:102CC000893109F0B4CFE9518E2F8170382EE69505
:102CD000F0E0E455FE4FA590B490BB2486EEE82EBC
:102CE00081E0F82E97E3892E92E0992ED12CC12C09
:102CF0002BE1622E712CC601B3010E94EF2C812FB3
:102D0000311011C0860F9701402F652D0E942D0AAA
:102D1000CA0CDB1C93E0E90EF11C8E149F0459F7DA
:102D20000E94ED1184CF861BEECFECE8F3E04381E7
:102D300021E1421B08F440E021E0628181810C9492
:102D4000E015ECE8F3E0438121E1420F08F44FEF96
:102D500021E0628181810C94E015ECE8F3E062816E
:102D600021E1621B08F460E021E0438181810C9441
:102D7000E015ECE8F3E0628121E1620F08F46FEF07
:102D800021E0438181810C94E015ECE8F3E081813E
:102D900021E0438162818A500C94E015ECE8F3E075
:102DA000818121E043816281865F0C94E015CF939D
:102DB000DF9300D000D0CDB7DEB780919003882399
:102DC00019F081508093900380918C0390918D0332
:102DD000A0918E03B0918F0389839A83AB83BC83C8
:102DE000BC01CD010F900F900F900F90DF91CF910C
:102DF0000C94CC15CF93DF9300D000D0CDB7DEB7C5
:102E000080919003833018F48F5F809390038091BA
:102E10008C0390918D03A0918E03B0918F038983D1
:102E20009A83AB83BC83BC01CD010F900F900F90B0
:102E30000F90DF91CF910C94CC15CF93DF9300D0FE
:102E400000D0CDB7DEB7ECE8F3E083E080831182F9
:102E50008FEF828388E783831482AFE3B3E0129617
:102E60008C911297836012968C9380819181A281BC
:102E7000B38189839A83AB83BC83BC01CD010F905E
:102E80000F900F900F90DF91CF910C94CC151F9263
:102E90000F920FB60F9211242F933F934F935F938E
:102EA0006F937F938F939F93AF93BF93CF93DF9352
:102EB000EF93FF93D091E900DF708091EC00C82F71
:102EC000C17080FDC0E81092E9008091F000877F1A
:102ED0008093F00078940E94310B1092E900809169
:102EE000F00088608093F000CD2BCF70C093E90094
:102EF000FF91EF91DF91CF91BF91AF919F918F9112
:102F00007F916F915F914F913F912F910F900FBEE5
:102F10000F901F9018951F920F920FB60F921124C9
:102F20002F933F934F935F936F937F938F939F93D1
:102F3000AF93BF93EF93FF938091E10082FF09C0AD
:102F40008091E20082FF05C08091E1008B7F809339
:102F5000E1008091DA0080FF24C08091D80080FFDA
:102F600020C08091DA008E7F8093DA008091D900B2
:102F700080FF9DC080E189BD82E189BD09B400FE6A
:102F8000FDCF81E08093A60380919903811109C050
:102F90000E940D060E94D8068091E2008460809312
:102FA000E2008091E10080FF17C08091E20080FF85
:102FB00013C08091E2008E7F8093E2008091E20056
:102FC00080618093E2008091D80080628093D80075
:102FD00019BC85E08093A6038091E10084FF2BC09B
:102FE0008091E20084FF27C080E189BD82E189BD34
:102FF00009B400FEFDCF8091D8008F7D8093D8006A
:103000008091E1008F7E8093E1008091E2008F7ECD
:103010008093E2008091E20081608093E2008091E1
:10302000A703882309F449C084E08093A6030E9483
:10303000220B0E94FF098091E10083FF27C080914D
:10304000E20083FF23C08091E100877F8093E1004D
:1030500082E08093A6031092A7038091E1008E7F07
:103060008093E1008091E2008E7F8093E200809166
:10307000E20080618093E20042E060E080E00E9434
:10308000A6068091F00088608093F000FF91EF9198
:10309000BF91AF919F918F917F916F915F914F9170
:1030A0003F912F910F900FBE0F901F90189519BC54
:1030B0001092A6031092990374CF8091E30087FDCC
:1030C00002C081E0B2CF83E0B0CF78941F921FB6E8
:1030D0001F9211248F939F93AF93BF9380912203EC
:1030E00090912303A0912403B09125030196A11D83
:1030F000B11D8093220390932303A0932403B093E4
:103100002503BF91AF919F918F911F901FBE1F907C
:1031100018952FB7F8948091220390912303A091E2
:103120002403B09125032FBF0895FF920F931F939F
:10313000CF93DF93C62FD42F122FFC0182818823D7
:10314000A9F06093B2030E9489189093B103809311
:10315000B003C77081E001C0880FCA95EAF7DF911C
:10316000CF911F910F91FF900C945E098091B20353
:10317000681334C08091B0039091B1030E94AB07F3
:10318000883C910558F500E20D0FCD17A9F0C770E6
:10319000FF24F3948F2D01C0880FCA95EAF70E948F
:1031A0005309083048F48D2F877001C0FF0C8A95B1
:1031B000EAF78F2D0E945E09812F0E94DA110830F4
:1031C000A0F4D77081E001C0880FDA95EAF7DF91AB
:1031D000CF911F910F91FF900C945309C77081E01C
:1031E00001C0880FCA95EAF7F2CFDF91CF911F9106
:1031F0000F91FF90089560918C03669570E04BE00D
:1032000050E084E091E00E94EB2D892B19F481E0DD
:10321000809340030E94891890933A038093390366
:10322000809141038460809341030895CF93DF939D
:1032300000D000D0CDB7DEB790918C0390FF47C08F
:10324000917081113AC0926090938C0380914103F8
:10325000816080934103662381F080918C0390917B
:103260008D03A0918E03B0918F0389839A83AB83E2
:10327000BC83BC01CD010E94CC1560918C03669586
:1032800070E04BE050E084E091E00E94EB2D892B50
:10329000D9F00E94100A81E080933C0320E0409125
:1032A0008F0360918E0380918D030F900F900F908C
:1032B0000F90DF91CF910C94E0158B3210F0946554
:1032C000C3CF880F982BC0CF0E94FB18E4CF0F907C
:1032D0000F900F900F90DF91CF91089590918C03F4
:1032E00096958FEF890F913009F48AE261E00C9492
:1032F000161980918C0386958F5F8B3208F081E0E0
:1033000061E00C94161990918C0390FF07C096957C
:10331000981720F0961710F40C94791961E00C942A
:1033200016195F926F927F928F929F92AF92BF9287
:10333000CF92DF92EF92FF920F931F93CF93DF9381
:10334000CDB7DEB729970FB6F894DEBF0FBECDBF5D
:103350007C01DC0113968D919C911497892B39F097
:103360008C9111969C9189238F3F09F0F3C5299682
:103370000FB6F894DEBF0FBECDBFDF91CF911F9186
:103380000F91FF90EF90DF90CF90BF90AF909F9004
:103390008F907F906F905F9008950E94C810182FB3
:1033A000682F89819A810E94510869817A81812FD1
:1033B0000E944C0F8C01F7018281882309F4BEC55D
:1033C000C80182519F45409708F030C58FEF93E0C8
:1033D0000E94B130025156EA852E99249394882395
:1033E00079F180911903877011F2D70112968C91AF
:1033F000882309F4BCCF82E029960FB6F894DEBF8B
:103400000FBECDBFDF91CF911F910F91FF90EF9035
:10341000DF90CF90BF90AF909F908F907F906F90F4
:103420005F900C94F2088114F4E09F06D1F2C4017D
:103430000E94B130811101C001501FEF811A910A21
:103440000111F1CF8091350190913601A0913701A2
:10345000B091380189839A83AB83BC8366246394DB
:103460004AE0542E84010F5F1F4FC4010E94B13007
:1034700089831A82882309F4B4CF9FEF980F933081
:1034800020F58A83698222E0820E911CC8010E9485
:10349000B1308B83882309F4A4CF8E010F5F1F4FB7
:1034A000D8012C912223F1F2213009F046C0119667
:1034B0009C91119712968C91913049F40E5F1F4F99
:1034C0000E94DA110F5F1F4FEBCF4801E6CF923019
:1034D00029F40E5F1F4F0E94C509F4CF933029F4E1
:1034E0000E5F1F4F0E946809EDCF943019F00F5FF7
:1034F0001F4FE8CF0E5F1F4F30E020E0B8016F5F35
:103500007F4FF80141818053990B8A30910550F02B
:1035100021503109B8F28FE99FE00197F1F700C01F
:103520000000F6CF529EF001539EF00D11249C0135
:103530002E0F3F1F842F8B01E1CFE22FF0E0ED5AD9
:10354000FB4F7490822F86958695869590E0FC01BE
:10355000ED5BFB4FA4902770B12C022E02C0B594F6
:10356000A7940A94E2F7A1E0AA22BB24FC01ED5C37
:10357000FB4FC490D12C02C0D594C7942A95E2F792
:10358000B1E0CB22DD24A114B10419F081EE0E9438
:10359000C509C114D10419F086EE0E94C509872D12
:1035A0000E94DA11CD2819F086EE0E946809AB2836
:1035B00009F488CF81EE96CF81E00E940A090E942B
:1035C0008E080FCF81E00E94BD08F9CF82E0F5CFD1
:1035D000C80143C4063F6CE51607D9F027E245EE63
:1035E00066EE073F7CE5170741F027E245EE64EE03
:1035F000053F8CE5180709F06FC4C7010E949518B4
:10360000F0CE27E245EE65EEF8CF26E241EE60EE21
:10361000F4CF26E241EE62EEF0CF28E241E0F3CFB4
:1036200098012B5F3C452930310508F467C4063109
:10363000ECE51E0709F0A1C480911C038A7A91E091
:1036400009F490E09093BE0269E2811165E388EC91
:1036500091E00E94DA070E94FA07C3CEF801E35016
:10366000FC45809130038160E331F10590F4E85925
:10367000FE4C0C94172D0B5F1C450930110508F00A
:103680004DC405581E4CF8010C94172D8091300341
:1036900082608093300342C4809130038460F9CF0C
:1036A000809130038860F5CF8091310381608093F1
:1036B000310334C4809131038260F9CF80913003AB
:1036C0008061E7CF809130038062E3CF8091300347
:1036D0008064DFCF0E94220B809130038068D9CFB5
:1036E000809130038C60D5CF809131038360DFCF30
:1036F000809130038E7FCDCF809130038D7FC9CFF5
:10370000809130038B7FC5CF80913003877FC1CFFD
:10371000809131038E7FCBCF809131038D7FC7CFD6
:10372000809130038F7EB5CF809130038F7DB1CFF4
:10373000809130038F7BADCF0E94220B80913003AC
:103740008F77A7CF80913003837FA3CF8091310300
:103750008C7FADCF8091300382FB992790F921E0D7
:10376000922790FB82F990FB83F993CF80913103EC
:10377000982F909591708E7F892B90FB81F997CF30
:103780000E94220B90913003892F97FB87F9805874
:1037900080CF61E08EE090E00E94C530BFC360E062
:1037A000F9CF8091BE0281110FC089E2EAECF1E00D
:1037B00020ED31E09191891303C0DF0111971C9234
:1037C0002E173F07B9F747CF85E3F0CF80918C03E1
:1037D00080FF26C08E7F80938C0300918C03109114
:1037E0008D0320918E0330918F030E831F832887D2
:1037F0003987C901B8010E94CC150E94100A809136
:1038000041038160809341031FEF20E732E01150B4
:1038100020403040E1F700C000000E94ED11E1CDF2
:10382000816080938C0361E086950E941619D9CD42
:103830004EE659E169E779E10E940B0AD2CD49E7EA
:1038400059E16EE679E1F8CF45EC56E16EEC76E1B0
:10385000F3CF4EEC56E165EC76E1EECF4DEA56E162
:1038600069EB76E1E9CF49EB56E16DEA76E1E4CF29
:1038700045E956E161EA76E1DFCF41EA56E165E9E3
:1038800076E1DACF47ED56E16AEF76E1D5CF4AEF40
:1038900056E167ED76E1D0CF61E081E0C6CF65E02B
:1038A00082E00E9483199DCD68E086E0FACF6EE049
:1038B00089E0F7CF64E18FE0F4CF67E185E1F1CFF4
:1038C00061E088E1B2CF62E289E1EBCF61E083E2BF
:1038D000ACCF0F3D1C4509F481C0F701C080D180F9
:1038E000992309F47EC0C6010E94C810182F682FC2
:1038F000C6010E945108B601812F0E94590F8C0108
:10390000882ED7011596AC901597A2943FE0A3227C
:1039100012969C90911010921B038091190387704E
:1039200099F0992089F0812F807F803421F080E206
:10393000800F883048F082E00E94F20880911903DD
:103940008770CC24C3948111C12CD12ED2942FE046
:10395000D222B8E0DB1609F4F5C0BD1508F446C064
:10396000E1E0ED1508F056C08EE08D0D8F708230CD
:1039700008F48DC0AD2DA850BB0B149710F40E9415
:10398000FF09CC2009F4F3CC8091190380FDEFCC22
:10399000F70112828595859585950E940A09C701D0
:1039A0000E94911980911903859585958595299691
:1039B0000FB6F894DEBF0FBECDBFDF91CF911F9140
:1039C0000F91FF90EF90DF90CF90BF90AF909F90BE
:1039D0008F907F906F905F900C94BD080E9462154D
:1039E00000CDC6010E942708182F85CFF9E0DF1609
:1039F00009F496C186E08D0D8F70823008F0BACF41
:103A0000802F22EF82129BC1812F8F71992009F4A0
:103A1000DAC192C1312F3F70B32E107F19F0B294EA
:103A200090EFB922802F9920C9F0BB2069F090E275
:103A3000900F983010F001110BC080911C03B82A30
:103A4000B0921C030E94FA07802F0E94C50992CFF2
:103A500080911B03B82AB0921B03F4CF0E9468091F
:103A6000BB2009F487CFB094005E083010F08110BD
:103A700008C080911C03B822B0921C030E94FA0770
:103A800079CF80911B03B822B0921B03F7CF412F4F
:103A90004F70B42E107F103219F0B29480EFB8221C
:103AA000882089F051E0851679F19920D1F1AA207A
:103AB00089F1D70115968C91159780FFC5CF8F702E
:103AC00015968C9327C0992091F090911D038B2D12
:103AD000892BA11003C00E945E094CCF61E0A612A1
:103AE000FACF981709F446CF80931D0343CFA11056
:103AF00006C00E94F4078B2D0E9453093BCF71E052
:103B0000A71609F437CFF5CF992031F085E08A1553
:103B100008F430CF8B2DDFCF94E09A1508F42ACF2C
:103B2000EACFAA2041F3093349F4BFEFE7EEF3E00F
:103B3000B150E040F040E1F700C00000802F0E944B
:103B4000680918CF812F837009F072C0911012CFCD
:103B5000202F229526952770220F220F402F4F707D
:103B600050E070E060E0022E04C0440F551F661F55
:103B7000771F0A94D2F780E090E0DC0104FF0FC0C9
:103B80008FE090E0A0E0B0E004C0880F991FAA1F6A
:103B9000BB1F2A95D2F780959095A095B095E12FFF
:103BA000E695E695E370E23081F1E33009F10091AA
:103BB0001E0310911F032091200330912103E13057
:103BC00099F0842B952BA62BB72BAC01BD0140237C
:103BD0005123622373234E835F8368877987CB01E8
:103BE000BA010E943B09C6CE402B512B622B732B8E
:103BF0008A019B01082B192B2A2B3B2B0E831F8339
:103C000028873987C901B801ECCF842B952BA62BC7
:103C1000B72B40911E0350911F03609120037091B8
:103C200021038C019D010427152726273727E6CF7E
:103C30008695992011F0812F8170882309F49ACEFE
:103C4000202F229526952770220F220F402F4F708C
:103C500050E070E060E0022E04C0440F551F661F64
:103C6000771F0A94D2F780E090E0DC0104FF0FC0D8
:103C70008FE090E0A0E0B0E004C0880F991FAA1F79
:103C8000BB1F2A95D2F780959095A095B095E12F0E
:103C9000E695E695E370E23081F1E330F9F00091CA
:103CA000B3031091B4032091B5033091B603E13012
:103CB00089F0842B952BA62BB72BAC01BD0140239B
:103CC0005123622373234E835F8368877987CB01F7
:103CD000BA0110C0402B512B622B732B8A019B0120
:103CE000082B192B2A2B3B2B0E831F832887398700
:103CF000C901B8010E9480083DCE842B952BA62BCC
:103D0000B72B4091B3035091B4036091B503709108
:103D1000B6038C019D010427152726273727E4CFFA
:103D20001F70992029F0812F0E940A09802FD3CE7D
:103D3000802F0E945309812F0E94BD081BCE22EFC5
:103D4000281570F030EF831609F141EF8416B1F1B8
:103D5000992009F45BC0A11077CE812F8F7133C0F9
:103D600053EF851699F164EF8612F2CF992009F48A
:103D700042C01F71812F0E940A0958E0159FC0019F
:103D80001124836080931903812F1DC0992089F02D
:103D900074E07A1508F4EECD1F7181E090E0A0E0A8
:103DA000B0E004C0880F991FAA1FBB1F1A95D2F755
:103DB000A8CF25E02A1508F4DDCDEECF812F8F7135
:103DC000992009F4B9CF0E940A09D4CD60E070E0CF
:103DD000CB01992009F48ECF1F7181E090E0A0E023
:103DE000B0E0AC01BD0104C0440F551F661F771F32
:103DF0001A95D2F768CF81E00E94F20861E06A1557
:103E000008F0B8CD82E00E94F208B4CDAA2059F0A3
:103E1000893309F093CE7FEF87EE93E071508040B5
:103E20009040E1F789CE812F8F7186CF0031FFE579
:103E30001F0709F4C1CB01312FE5120709F4C6CBE6
:103E4000C80190568115E0E29E0728F0905E81152A
:103E5000904108F0BDCBC801992720E28C33910531
:103E600020F4FC01EB58FE4F20811F922F939F936B
:103E70008F93D7018C911F928F9311968C911F92E3
:103E80008F9389E391E09F938F931F9288E18F93A3
:103E900082E493E09F938F930E94052E0FB6F894CF
:103EA000DEBF0FBECDBF043FFCE51F0709F4ADCB5D
:103EB00008F090CB093D3CE5130709F4A2CB0A3D7D
:103EC0004CE5140709F4A9CB26E241EE61EE083D6A
:103ED0005CE5150709F491CBD70112969C919923C3
:103EE00009F45DC01092B2030631BCE51B0708F06F
:103EF00097CB0230ECE51E0708F43FC00E94180F74
:103F000090933103809330030631FCE51F0708F0DE
:103F1000B2CB02302CE5120708F0A0CB6091300341
:103F20001091310384E090E00E94C530612F81E25E
:103F300090E00E94C5300E94220B53CA00313FE539
:103F4000130709F43FCB01314FE5140709F0ABCF5C
:103F500082E039CB85E0F701DE01119601900D92E8
:103F60008A95E1F7D70112962C9189819A812111C6
:103F700014CA0E942708182F18CA0115BCE51B0790
:103F800009F0A7CC0E94220B5FEF64E37CE0515064
:103F900060407040E1F700C000000E949A070631BF
:103FA000FCE51F0709F4FDCB80911C038272F80128
:103FB000E35CFC45E431F10508F08FCCEC57FE4C96
:103FC0000C94172D1F93CF93DF938091C802807FAD
:103FD000A9F48091C502882389F08091FA02D091DA
:103FE000C9026091C3027091C402A091C602B0914F
:103FF000C702C62FC72316E0D81304C0DF91CF91A4
:104000001F91089590E0109711F0CF3F19F4019699
:104010008770F2CF189F9001199F300D1124F9017C
:10402000E653FD4F41814713F2CF40814613EFCF56
:1040300042814111ECCF438154814A1B5B0B483CC8
:10404000510528F78091C8028F7080618093C80263
:10405000F901E153FD4F80818F708061808383EC93
:1040600092E00E949119DF91CF911F910C94490920
:10407000AF92BF92CF92DF92EF92FF920F931F9376
:10408000CF93DF93CDB7DEB72B970FB6F894DEBF93
:104090000FBECDBF8C0185E0F801DE0117960190BF
:1040A0000D928A95E1F7F80180819181E28023ECFD
:1040B000A22E22E0B22E6091C6027091C702611555
:1040C000710509F421C13091C3024091C402242F2B
:1040D00023232F3F09F418C1C380D480F090C50278
:1040E000F601E61BF70BFF2009F4DFC02091C802A0
:1040F000522F507FE83CF10508F0BAC0511177C04B
:10410000FE2C491321C038131FC0E1101DC02F70B1
:1041100020612093C802C5010E9491198091C802B4
:10412000F80185838F2D2B960FB6F894DEBF0FBE56
:10413000CDBFDF91CF911F910F91FF90EF90DF9056
:10414000CF90BF90AF900895CD2829F0282F292334
:104150002F3F09F0F7C020E0F22FF170DF2EE09141
:10416000FA024091C90256E020FD1CC0EE20D1F2B7
:104170008091C80281608093C802F12CD3CF2E2F8A
:1041800030E05E9FF0011124E653FD4F61819613EC
:1041900006C06081861303C06281E612E7CFF90191
:1041A0003196E770E413EBCF8F8398878F819885E2
:1041B0000E940A11292F22952F70903260F0225F01
:1041C0002F70223078F49F7051F0F8019581907F24
:1041D00031F4D12C0AC09F7011F08823D1F3805E96
:1041E0008830B8F3C8010E949119FD2C9BCF491368
:1041F00012C0381310C0E1100EC0F8012583C801A9
:104200000E94911986E0F801A3ECB2E001900D92B2
:104210008A95E1F787CF8F8398878F8198850E9451
:104220001611882309F1EE20F9F08091C80280323E
:1042300070F02091C3023091C4023A8329831B821B
:10424000DD82CC828E83CE0101960E94911986E098
:10425000F801A3ECB2E001900D928A95E1F70E947B
:10426000E21FFF24F3945ECFC8010E949119F9CF99
:1042700051110AC083EC92E00E94911986E0F50189
:1042800011928A95E9F779CF4913C5CF3813C3CF77
:10429000E110C1CFF8012583C8010E94911986E081
:1042A000F50111928A95E9F73DCFE83CF105B8F7A1
:1042B000FE2CEE20C9F2491316C0381314C08091A9
:1042C000C80280FD9FCF982F907F09F49BCFF80103
:1042D0008583903F09F493CF982F907F905F8F70E4
:1042E000892B85838CCF8F8398878F8198850E94B7
:1042F00016118111ACCF8091C80281608093C802F1
:10430000C8010E9491190ECFEE2009F4ADCF8F8322
:1043100098878F8198850E941611F82E882309F4BA
:10432000A3CF86E0F801A3ECB2E001900D928A954C
:10433000E1F78091C3029091C4020E940A110E9489
:10434000E21FF0CE21E02E2507CF1F93CF93DF93FE
:10435000CDB7DEB767970FB6F894DEBF0FBECDBFFF
:104360004B8B5C8B6D8B7E8B8F8B1A8A85E0FE016D
:104370007396DE011D9601900D928A95E1F786E015
:10438000FE013D96DE01179601900D928A95E1F7A8
:10439000CE0107960E943820882389F016E080918C
:1043A000FA029091C90289134FC067960FB6F8942C
:1043B000DEBF0FBECDBFDF91CF911F91089586E084
:1043C000FE013796DE01119601900D928A95E1F774
:1043D0004A855B854115510509F37F816885862FE4
:1043E00087238F3FD9F22091C90230E0C90101969D
:1043F00087709927E091FA02E817190671F40E9474
:10440000220B1092C9021092FA0286E0E3ECF2E06D
:10441000DF011D928A95E9F7C1CF79836A835D83B5
:104420004C8396E0929FD001939FB00D1124A65328
:10443000BD4FFE01319601900D929A95E1F7809360
:10444000C9020E944909AACF819FC0011124865345
:104450009D4F0E943820882309F4A7CF8091FA024B
:1044600090E00196877099278093FA0298CFCF92B7
:10447000DF92EF92FF920F931F93CF93DF9301EBA5
:1044800011E086E2C82E83E0D82ED0E0EE24E3943B
:10449000F12CF80181918F01F894E82FE295EF70EB
:1044A000F0E021A18F70A70102C0440F551F8A952B
:1044B000E2F7CA01922F982B91A392A180958923AC
:1044C00082A3789450EA5A95F1F7E9EBF1E030E0F5
:1044D00020E0C0E04191A42FA295AF70B0E090968B
:1044E0008C9190E04F7002C0959587954A95E2F7C0
:1044F00080FD48C08E2D022E01C0880F0A94EAF775
:10450000C82B2F5F3F4F2630310521F7F801319737
:1045100080810E94C60AF6018081C817A9F1C08374
:1045200081E0D82BFFEFCF1ADF0A41E0053B1407EB
:1045300009F0AFCFC0912F03DD2341F181E08093DB
:10454000D3010E9489189093D2018093D101809168
:10455000D1019091D2010E94AB070697D8F0EC2FC1
:10456000F0E0EF56FC4F8091260380838091270373
:104570008183809128038283809129038383109211
:10458000D30108C080E0BCCF80E0CBCF8091D301C5
:104590008111DDCF0E944515882309F456C0C091D2
:1045A0002E03809141038823E9F085E0ECE8F3E0F5
:1045B000A4EDB1E001900D928A95E1F780913F035F
:1045C00090914003A09141038093D9019093DA0127
:1045D000A093DB0181E090E00E94562C892B11F41E
:1045E0001092410390E080E00E94562C9C01892BA0
:1045F00089F08091E1018F5F8093E1018630D8F4EA
:104600008D2FDF91CF911F910F91FF90EF90DF9051
:10461000CF900895EC2FF0E0EF56FC4FD901A35254
:10462000BE4F8C9181932F5F3F4F24303105B1F7FE
:104630001092E101E5CFE0912E03F0E0EF56FC4F40
:104640001082118212821382DBCFE0912F030E2F92
:1046500010E08091DC01883099F58091DB0180FFCA
:104660000FC08091D40180FF3AC080918C0381609B
:1046700080938C038091D40160E086950E94161986
:104680008091DB0181FF09C020E04091D70160915A
:10469000D6018091D5010E94E0158091DB0182FF57
:1046A00006C08091DA018823E9F00E94FB1880910E
:1046B000DB0183FF03C081E080933C031092DC01A7
:1046C000F801EF56FC4F90E080E02191DC01A3520D
:1046D000BE4F2C93019684309105B9F791CF0E947B
:1046E0002E15CECF0E94100AE2CFCDB7DEB7A49729
:1046F0000FB6F894DEBF0FBECDBF84B7877F84BFEF
:104700000FB6F894A895809160008861809360004E
:10471000109260000FBE80E890E00FB6F89480938E
:104720006100909361000FBE85B7806885BF85B733
:10473000806885BF0E940D060E94D8068091E20025
:1047400084608093E20078948091A6038823A1F08E
:104750001091E9001F709091EC00892F817090FDFD
:1047600080E8182B1092E9008091E80083FD0E94F8
:10477000310B1F701093E90082E084BD93E095BD7A
:104780009AEF97BD80936E000E9445158093220199
:104790000E944515882331F062E070E082E191E0EB
:1047A0000E94742B809122018091220194E081115A
:1047B00090E090932F0384E0891B80932E0384E97B
:1047C0000E94C60A86E60E94C60A87E90E94C60AB7
:1047D00086EC0E94C60A84EF0E94C60A85EF0E94FA
:1047E000C60A86EF0E94C60A87EF0E94C60A81E3C6
:1047F0000E94C60A83E30E94C60AE6E2F3E0A1E94A
:10480000B3E011921D9223E0EE32F207D1F70E943D
:1048100037228FE39CE90197F1F700C000000E9466
:1048200037228091910380FF17C06FEF82E290E002
:104830000E94C5306FEF83E290E00E94C5306FEFB9
:1048400084E290E00E94C5306FEF7FEF90E080E05F
:104850000E94E3300E949A0790E080E00E94BF30FF
:104860008C3E9E4F11F00E9462150E9445158111E9
:1048700006C062E070E082E191E00E947D2B82E25E
:1048800090E00E94B130813209F08FC583E290E060
:104890000E94B130853009F088C584E290E00E9422
:1048A000B130833009F081C50E944515811193C153
:1048B00082E080937A0380E88093B7030E941E2AE7
:1048C0006DE070E086EE94E00E94AF0E892B09F057
:1048D0003FC080917A0363E070E081FD7EC183EE8A
:1048E00094E00E94AF0E892B99F56DE070E083EDA6
:1048F00094E00E94AF0E892B59F50E94BA07DC01A3
:10490000CB01805A9541AF4FBF4F80937C0390936A
:104910007D03A0937E03B0937F03EAEBF3E080E096
:1049200092E0DF019C011D9221503040E1F7F093AD
:10493000C105E093C0058FEF9FEF9093B90380937B
:10494000B80381E0809381038093800310927B03FE
:1049500090E080E00E94BF308C3E9E4F11F00E949C
:10496000621582E090E00E94B130809383030E9440
:10497000180F909331038093300383E090E00E94FE
:10498000B130282F30E050E040E029A33AA34BA3F8
:104990005CA3CA01B9010E943B09809132038111D5
:1049A0003BC090E080E00E94BF308C3E9E4F21F0E3
:1049B0000E9462150E941D1788E090E00E94B930A5
:1049C00060938C0370938D0380938E0390938F0379
:1049D000809141038360809341036E7F71F40E9454
:1049E0001D1788E090E00E94B93060938C037093AB
:1049F0008D0380938E0390938F030E94170A0E9469
:104A0000100A80918C0380FF04C060E086950E94AC
:104A1000161981E0809332038AE291E09093340387
:104A20008093330322242394312C81E993E0E8E03E
:104A30006E2E680E8091A603853009F4D1C00E94C5
:104A40003722D82E0E944515882309F40BC1E4E8CB
:104A5000F3E0A1E9B3E010E000E0302F8D919191F7
:104A6000981709F4F9C0292F282790E0FF24F39420
:104A7000422F4F2109F4EBC099833A838F2191E0B3
:104A800009F490E09B830E9489188160782F9D83B0
:104A90008C8349815A816B818D810E94A521F80107
:104AA000EC57FC4F8081F826F082809140038823E8
:104AB00009F46AC080913F03E0918C03E695E81BFE
:104AC000E0933B03823009F0DEC0F0E0EC5FFA4F88
:104AD000E4910E2F10E06AE0E62E65E1F62E80915B
:104AE0003C03882389F010923C030E9489189801A6
:104AF00020953095280F391F30933A0320933903BE
:104B000010923E0310923D038091390390913A0335
:104B10000E94AB0780179107B8F180913803882372
:104B2000B1F01092380380913603909137030E94C0
:104B3000AB078033954758F00E948918909337034C
:104B40008093360380914103886080934103A09055
:104B50003D03B0903E03E0913903F0913A030E0F0C
:104B60001F1F10933A030093390389E393E0F70181
:104B7000099580913D0390913E03892B29F4AB2840
:104B800019F081E08093380380918103882309F430
:104B90008FC12AEB33E03093C1052093C0050E94FA
:104BA0004515882309F4CFC183E295E00E946F0E7A
:104BB0008091B3039091B403A091B503B091B60373
:104BC0008F309105A105B10508F0D0C0FC01E85671
:104BD000FE4C0C94172D80E06CCE80EE94E081CEDC
:104BE0008091A603843021F11092350388E190E092
:104BF00020E40FB6F894A895809360000FBE209330
:104C0000600083B7817F846083BF83B7816083BF87
:104C10007894889583B78E7F83BF0FB6F894A89554
:104C200080916000886180936000109260000FBEE8
:104C30008091A503882309F4FDCE0E943722E1E983
:104C4000F3E0819181119BC36E12FBCFF3CE9F5F86
:104C5000FF0C963009F00CCF0F5F1F4F0830110585
:104C600009F0FBCE8FEF89838A831B820E9489180B
:104C70008160782F9D838C8349815A816B818D81DE
:104C80000E94A52112CF863059F4F0E0EF5FFA4F71
:104C9000E4910E2F10E05EE1E52E55E1F52E1FCFD9
:104CA000893061F4E695F0E0E250FB4FE4910E2F7D
:104CB00010E04BEAE42E42E1F42E11CF8F3061F484
:104CC000E695F0E0E550FB4FE4910E2F10E035ED56
:104CD000E32E32E1F32E03CF853159F4F0E0E850B2
:104CE000FB4FE4910E2F10E02CE5E22E23E1F22E93
:104CF000F6CE08E210E0B2ECEB2EB3E1FB2E8831E9
:104D000009F4EDCE833249F4E6EFF4E00591149115
:104D100090EBE92E94E1F92EE2CE04EF11E0A7E644
:104D2000EA2EA4E1FA2E843209F4D9CE00ED17E080
:104D3000F3E9EF2EF7E0FF2E853209F0D0CE8E2F6B
:104D400063E00E94D52CE92FF0E0ED50FB4FE49199
:104D50000E2F10E082E2E82E82E1F82EC0CE8BE129
:104D600095E00E946F0E81E00E947D0EE2E4F3E088
:104D700001900020E9F7AF01415051097A0102E4A6
:104D800013E00E151F0508F4D8C080918103882315
:104D900009F45FC02091B8033091B90321153105A2
:104DA00009F457C080917B03811153C0082F10E094
:104DB0007101082E02C0EE0CFF1C0A94E2F7A90153
:104DC0004E215F21452B09F4C3C090917A0390FDD9
:104DD000C1C08295880F8076809325019801369511
:104DE00027953695279520932801815E809326018B
:104DF0001092290124E630E047E050E063E271E0E0
:104E000088E70E94AF2A892B21F5A80175E0440F9D
:104E1000551F7A95E1F780917A0380FDA9C0465429
:104E20005C4F04E610E020E230E060E488E70E9496
:104E3000DC2A892B71F40E94DF0EE094F0948091BB
:104E4000B8039091B903E822F922F092B903E092F5
:104E5000B80380918003882359F10E94BA0769A39F
:104E60007AA38BA39CA380917C0390917D03A09156
:104E70007E03B0917F0329A13AA14BA15CA1281B1D
:104E8000390B4A0B5B0BDA01C9018F3F9F4FAF4FC4
:104E9000BF4770F480918103882351F062E070E095
:104EA0008BE695E00E94AF0E892B11F410928003DF
:104EB000D1100E94DF0E0E94FF0990918203891792
:104EC00021F00E94FF09809382038091A603843021
:104ED00009F0B0CD83E08093E9008091E80082FF83
:104EE000A9CD8091E80090E085FF0CC00E942C06BF
:104EF00030E2E32EF12C8E010F5F1F4F882309F45F
:104F0000A4C091E08091E8008B778093E80099231A
:104F100009F490CDE981E150E33108F0FFC0F0E001
:104F2000E955FE4C0C94172D85E195E01ACF8FE0E2
:104F300095E017CF88E095E014CFD8018D918D01D1
:104F40000E94EE0D1ECF8BE295E00E946F0E1DCFEA
:104F50008F5F2CCF880F880F880F809325011092C8
:104F60002801895F8093260183E08093290142CF45
:104F700080E2EAE5F3E011928A95E9F723EC31E06B
:104F80003AA329A30FEB11E067E0962EA9A1BAA1DD
:104F90002D91BAA3A9A3F80141908F01440E552E7B
:104FA000511CC20186549C4F2C01E22FF0E0E65ABE
:104FB000FC4F30E020E0792C721AC22C022E01C086
:104FC000CC0C0A94EAF7520180E0D5019D915D0175
:104FD0009C21672D681B6770862E062E000C770BB0
:104FE000B92F01C0BB0F8A94EAF78B2E719561959A
:104FF00071096770772701C096956A95EAF7892A43
:105000009081892A80828F5F8830F9F62F5F3F4F29
:1050100031962830310579F6E7ECF1E029A13AA183
:10502000E217F30709F0B2CF04E610E020E230E027
:105030004AE553E0FACE8091F100D8018D938D01BD
:10504000B1E0EB1AF10809F45CCF8091E80085FD2E
:10505000F2CF8091E8008B778093E8000E942C06C5
:10506000882399F34ECF1A8289E08B8311C08A81FD
:10507000823009F4B3C1833091F1813009F04EC020
:105080000E94BA070E941D2D6B837C838D839E83B3
:105090008091A603843009F0CDCC1091E9001F70F7
:1050A0009091EC00892F817090FD80E8182B82E0B0
:1050B0008093E9008091E80080FF0DC050E040E05F
:1050C00060E270E0CE0101960E945D068091E800EA
:1050D0008E778093E8001F701093E900ABCCDE015F
:1050E0001396E1E9F3E081918D9323E0E939F2072A
:1050F000D1F7CECF8A81823089F48B819C81AD81BA
:10510000BE8189A39AA3ABA3BCA3BC01CD010E941D
:105110001D2D85E290E00E94C530BACF8FEF8983C4
:10512000B7CF4C816B818A810E94260F98278927EF
:1051300098279E838D83ACCF0D811E811027012778
:1051400010278A81EB809CE0E99E70011124A0E683
:105150008A9FE00CF11C11248C8190E0880F991F2C
:10516000E80EF91E612FC70186960E94C530602F98
:10517000C7018796D0CF0E9443118ACF8A81823897
:1051800061F178F48038B1F0813809F081CF60E0C6
:105190008B810E9416198B81811115C00E942E15DA
:1051A00077CF833809F074CF20E040918F036C8172
:1051B0008B8106C020E04B8160918E0380918D032E
:1051C0000E94E01565CF80918C03816080938C03F1
:1051D00060E086950E9416195BCF8B8180939003C7
:1051E00057CF8A818238D9F058F4803899F08138C5
:1051F00009F04ECF80918C0380FF0FC0869535CF8C
:10520000833809F045CF80918D038B8380918E0385
:105210008C833ECF80918F0328CF80E026CF809172
:10522000900323CF20918C0330918D0340918E0306
:1052300050918F0329A33AA34BA35CA3CA01B901E0
:105240000E94CC1525CF80E18A8322CF82E08A8319
:105250008AE50BCFCA80DB80DC24CD24DC248E01E0
:105260000F5F1F4FEC80E00EF12EF11CC6018A5536
:105270009E4FE016F10609F40BCF3AE5C31632E073
:10528000D30658F40E94B130D80114968C93FFEFE6
:10529000CF1ADF0A0F5F1F4FE9CFF8011482F7CF53
:1052A0000A811B811027012710279E012F5F3F4F86
:1052B0006901EC80E00EF12EF11CC8018A559E4F69
:1052C000E016F10609F4E4CE0A3532E0130728F4BB
:1052D000D60114966C910E94C530BFEFCB1ADB0A41
:1052E0000F5F1F4FEACF0E949A11D2CE84E0ACCF5D
:1052F000CA80DB80DC24CD24DC248E010F5F1F4FAD
:10530000EC80E00EF12EF11CC6018696E016F10647
:1053100009F4BECEE0E8CE16E1E0DE0658F40E94C5
:10532000B130D80114968C93FFEFCF1ADF0A0F5FCC
:105330001F4FEACFF8011482F7CF0A811B81102793
:10534000012710279E012F5F3F4F6901EC80E00E7F
:10535000F12EF11CC8018696E016F10609F498CEEC
:10536000003831E0130728F4D60114966C910E949E
:10537000C530BFEFCB1ADB0A0F5F1F4FEBCF80E1C9
:1053800089BD82E189BD09B400FEFDCF8091D800BE
:105390008F7D8093D8008091E00082608093E00050
:1053A0008091E00081FDFCCF45CB60E085E290E09C
:1053B0000E94C5300E9443110E949A1161E282E26C
:1053C00090E00E94C53065E083E290E00E94C53025
:1053D00063E084E290E00E94C53066CA85E290E016
:1053E0000E94B1301B821C821D828E8351CE1F927F
:1053F0001FB61F9211248F939F93AF93BF938091F9
:105400003503811113C08091220390912303A09151
:105410002403B09125034196A11DB11D8093220361
:1054200090932303A0932403B0932503BF91AF91DE
:105430009F918F911F901FBE1F9018951092B900D9
:105440008CE08093B8000895EF92FF920F931F9322
:10545000CF93DF93182FEB011092BC0084EA809366
:10546000BC000E9489187C018091BC0087FF27C086
:105470008091B900887F883029F08091B900887FB9
:105480008031D9F51093BB0084E88093BC000E9462
:1054900089188C018091BC0087FF24C02091B9003D
:1054A000287F90E080E02831B1F081E090E0203466
:1054B00011F490E080E09195819591090CC0CF3F67
:1054C000DC0791F20E9489188E199F098C179D079D
:1054D00058F28EEF9FEFDF91CF911F910F91FF90C8
:1054E000EF900895CF3FDC07A9F20E948918801B36
:1054F000910B8C179D0770F2ECCF8FEF9FEFEBCFE6
:105500000F931F93CF93DF93EB018093BB0084E84D
:105510008093BC000E9489188C018091BC0087FF99
:1055200011C02091B900287F81E090E0283211F469
:1055300090E080E0919581959109DF91CF911F9145
:105540000F910895CF3FDC0741F30E948918801B1B
:10555000910B8C179D0708F38EEF9FEFEECFCF9244
:10556000DF92EF92FF920F931F93CF93DF936B0124
:105570008A01F22EE32E622F732F0E94242AAC019F
:10558000E6010C0D1D1DC017D10711F057FF0DC00E
:1055900084E98093BC00CA01DF91CF911F910F91E4
:1055A000FF90EF90DF90CF9008956F2D7E2D899121
:1055B0000E94802AAC01E7CFCF92DF92EF92FF9258
:1055C0000F931F93CF93DF93C62F6A017901B80120
:1055D0000E94242A9C0197FD0DC0B8018C2F0E94C7
:1055E000802A9C01E601EC0CFD1CCE15DF0511F0B4
:1055F00037FF0DC084E98093BC00C901DF91CF91D2
:105600001F910F91FF90EF90DF90CF900895B80118
:1056100089910E94802A9C01E8CF84E98093BC0094
:1056200008958EE14A9B02C08150E1F74A9BFECF6C
:1056300008955A9880E28A95F1F75A9A0895FC01E4
:105640003BE03A95F1F720E090E080E031E040E186
:105650004A95F1F7880F4A9B02C08160232742E0F8
:105660004A95F1F7000040E14A95F1F79F5F691311
:10567000EECF90E19A95F1F799B132E03A95F1F7D2
:10568000000040E14A95F1F792FB992790F99227A3
:105690002081920F90830895EF92FF920F931F93B2
:1056A000CF93DF930F92CDB7DEB719828C017C01C7
:1056B000E60EF11C0E151F0561F481E09981911130
:1056C00080E00F90DF91CF911F910F91FF90EF90AD
:1056D00008950E94112B68E0CE0101960E941F2BB5
:1056E000F80181938F01E6CF9093C4058093C305A1
:1056F0006093C205529A5A9A08959093C405809374
:10570000C3056093C20552985A9AEA9AE9E6F0E016
:1057100080818F7C808308956150770B91E001C078
:10572000990F6A95EAF720E031E0911108C0222331
:1057300091F05A9A80E28A95F1F75A980895492F84
:10574000482339F05A9A232740E24A95F1F7969573
:10575000ECCF5A98F9CF5A98EDCFFF920F931F9341
:10576000CF93DF93EC018C01060F111DC017D107F9
:1057700031F4DF91CF911F910F91FF900895F9902F
:105780000E94192B68E08F2D0E948C2BEFCF1F9267
:105790000F920FB60F9211240F931F932F933F93E5
:1057A0004F935F936F937F938F939F93AF93BF9329
:1057B000EF93FF93CF93DF930F92CDB7DEB71982AC
:1057C0000E94112B67E0CE0101960E941F2B082F2B
:1057D000069506950695982F92959570202F257021
:1057E000920F292F2370969596958770920F8913A3
:1057F00044C08981811141C08091C2058017E8F1C0
:1058000020E12A95F1F75A9A529A82E08A95F1F7A7
:1058100000C0A8E00A9FC00111240091C3051091A7
:10582000C405080F191F5A98F8016581662321F0F5
:10583000868197810E94AD2B0E94192BF0E1FA9589
:10584000F1F75A9852985A9A20E12A95F1F7D8011F
:1058500012966C911297662331F113968D919C915B
:105860000E944C2BD801ED91FC91882311F088E027
:1058700001C082E080830E94112B0F90DF91CF91B5
:10588000FF91EF91BF91AF919F918F917F916F9118
:105890005F914F913F912F911F910F910F900FBEEC
:1058A0000F901F901895ED91FC91E1CF0F931F93EE
:1058B000CF93DF939C018091C205821713060CF4ED
:1058C00071C0890183E0000F111F8A95E1F7C09133
:1058D000C305D091C405C00FD11FF894529A5A98AD
:1058E00085E08A95F1F70000922F969595702570C6
:1058F000920F892F837096959695980F092B0E9489
:10590000192B00C067E0802F0E948C2B80E18A95C4
:10591000F1F752985A9A4A9B17C087E090E04A994B
:1059200015C06D81662321F18E819F810E944C2BD1
:1059300081111EC0529A5A9AE881F98182E08083CF
:10594000789482E090E00DC000C0E5CF019771F43B
:10595000529A5A9AE881F98181E08083789481E0B3
:1059600090E0DF91CF911F910F91089500C0D7CFA4
:105970000E94112B80E28A95F1F75A98529A80E1A1
:105980008A95F1F76A81662321F08B819C810E94C0
:10599000AD2B0E94192BE881F9811082789490E058
:1059A00080E0DFCF84E090E0DCCF991B79E004C099
:1059B000991F961708F0961B881F7A95C9F780954E
:1059C000089587FB082E062687FD819567FD619562
:1059D0000E94D52C0EF4919507FC81950895AA1B81
:1059E000BB1B51E107C0AA1FBB1FA617B70710F0CA
:1059F000A61BB70B881F991F5A95A9F780959095FC
:105A0000BC01CD01089597FB072E16F4009407D032
:105A100077FD09D00E94EF2C07FC05D03EF490954D
:105A200081959F4F0895709561957F4F0895EE0F72
:105A3000FF1F0590F491E02D0994692796276927A7
:105A400078278727782708950E944D31332312F451
:105A50008A1B9B0B0C942E2D0E944D31B7FF08958D
:105A6000821B930B08952F923F924F925F926F92F9
:105A70007F928F929F92AF92BF92CF92DF92EF92DE
:105A8000FF920F931F93CF93DF93CDB7DEB7CA1B5F
:105A9000DB0B0FB6F894DEBF0FBECDBF09942A888A
:105AA000398848885F846E847D848C849B84AA8432
:105AB000B984C884DF80EE80FD800C811B81AA81BF
:105AC000B981CE0FD11D0FB6F894DEBF0FBECDBF8A
:105AD000ED010895CF92DF92EF92FF92CF93DF9383
